{
  "_format": "hh-sol-artifact-1",
  "contractName": "PetIdentity",
  "sourceName": "contracts/PetIdentity.sol",
  "abi": [
    {
      "anonymous": false,
      "inputs": [
        {
          "indexed": false,
          "internalType": "uint256",
          "name": "id",
          "type": "uint256"
        },
        {
          "indexed": false,
          "internalType": "string",
          "name": "name",
          "type": "string"
        },
        {
          "indexed": false,
          "internalType": "string",
          "name": "breed",
          "type": "string"
        },
        {
          "indexed": false,
          "internalType": "uint256",
          "name": "age",
          "type": "uint256"
        },
        {
          "indexed": false,
          "internalType": "address",
          "name": "owner",
          "type": "address"
        }
      ],
      "name": "PetAdded",
      "type": "event"
    },
    {
      "anonymous": false,
      "inputs": [
        {
          "indexed": false,
          "internalType": "uint256",
          "name": "id",
          "type": "uint256"
        },
        {
          "indexed": false,
          "internalType": "address",
          "name": "oldOwner",
          "type": "address"
        },
        {
          "indexed": false,
          "internalType": "address",
          "name": "newOwner",
          "type": "address"
        }
      ],
      "name": "PetOwnershipTransferred",
      "type": "event"
    },
    {
      "inputs": [
        {
          "internalType": "string",
          "name": "_name",
          "type": "string"
        },
        {
          "internalType": "string",
          "name": "_breed",
          "type": "string"
        },
        {
          "internalType": "uint256",
          "name": "_age",
          "type": "uint256"
        },
        {
          "internalType": "string",
          "name": "_healthRecords",
          "type": "string"
        },
        {
          "internalType": "string",
          "name": "_image",
          "type": "string"
        }
      ],
      "name": "addPet",
      "outputs": [],
      "stateMutability": "nonpayable",
      "type": "function"
    },
    {
      "inputs": [
        {
          "internalType": "uint256",
          "name": "_id",
          "type": "uint256"
        }
      ],
      "name": "clearReport",
      "outputs": [],
      "stateMutability": "nonpayable",
      "type": "function"
    },
    {
      "inputs": [
        {
          "internalType": "uint256",
          "name": "_id",
          "type": "uint256"
        }
      ],
      "name": "getPet",
      "outputs": [
        {
          "components": [
            {
              "internalType": "string",
              "name": "name",
              "type": "string"
            },
            {
              "internalType": "string",
              "name": "breed",
              "type": "string"
            },
            {
              "internalType": "uint256",
              "name": "age",
              "type": "uint256"
            },
            {
              "internalType": "address",
              "name": "owner",
              "type": "address"
            },
            {
              "internalType": "string",
              "name": "healthRecords",
              "type": "string"
            },
            {
              "internalType": "string",
              "name": "image",
              "type": "string"
            },
            {
              "internalType": "bool",
              "name": "isLost",
              "type": "bool"
            },
            {
              "internalType": "bool",
              "name": "isFound",
              "type": "bool"
            }
          ],
          "internalType": "struct PetIdentity.Pet",
          "name": "",
          "type": "tuple"
        }
      ],
      "stateMutability": "view",
      "type": "function"
    },
    {
      "inputs": [],
      "name": "getPetCount",
      "outputs": [
        {
          "internalType": "uint256",
          "name": "",
          "type": "uint256"
        }
      ],
      "stateMutability": "view",
      "type": "function"
    },
    {
      "inputs": [
        {
          "internalType": "address",
          "name": "_owner",
          "type": "address"
        }
      ],
      "name": "listAllOwnerPets",
      "outputs": [
        {
          "components": [
            {
              "internalType": "string",
              "name": "name",
              "type": "string"
            },
            {
              "internalType": "string",
              "name": "breed",
              "type": "string"
            },
            {
              "internalType": "uint256",
              "name": "age",
              "type": "uint256"
            },
            {
              "internalType": "address",
              "name": "owner",
              "type": "address"
            },
            {
              "internalType": "string",
              "name": "healthRecords",
              "type": "string"
            },
            {
              "internalType": "string",
              "name": "image",
              "type": "string"
            },
            {
              "internalType": "bool",
              "name": "isLost",
              "type": "bool"
            },
            {
              "internalType": "bool",
              "name": "isFound",
              "type": "bool"
            }
          ],
          "internalType": "struct PetIdentity.Pet[]",
          "name": "",
          "type": "tuple[]"
        }
      ],
      "stateMutability": "view",
      "type": "function"
    },
    {
      "inputs": [
        {
          "internalType": "uint256",
          "name": "",
          "type": "uint256"
        }
      ],
      "name": "pets",
      "outputs": [
        {
          "internalType": "string",
          "name": "name",
          "type": "string"
        },
        {
          "internalType": "string",
          "name": "breed",
          "type": "string"
        },
        {
          "internalType": "uint256",
          "name": "age",
          "type": "uint256"
        },
        {
          "internalType": "address",
          "name": "owner",
          "type": "address"
        },
        {
          "internalType": "string",
          "name": "healthRecords",
          "type": "string"
        },
        {
          "internalType": "string",
          "name": "image",
          "type": "string"
        },
        {
          "internalType": "bool",
          "name": "isLost",
          "type": "bool"
        },
        {
          "internalType": "bool",
          "name": "isFound",
          "type": "bool"
        }
      ],
      "stateMutability": "view",
      "type": "function"
    },
    {
      "inputs": [],
      "name": "petsCount",
      "outputs": [
        {
          "internalType": "uint256",
          "name": "",
          "type": "uint256"
        }
      ],
      "stateMutability": "view",
      "type": "function"
    },
    {
      "inputs": [
        {
          "internalType": "uint256",
          "name": "_id",
          "type": "uint256"
        }
      ],
      "name": "reportFound",
      "outputs": [],
      "stateMutability": "nonpayable",
      "type": "function"
    },
    {
      "inputs": [
        {
          "internalType": "uint256",
          "name": "_id",
          "type": "uint256"
        }
      ],
      "name": "reportLost",
      "outputs": [],
      "stateMutability": "nonpayable",
      "type": "function"
    },
    {
      "inputs": [
        {
          "internalType": "uint256",
          "name": "_id",
          "type": "uint256"
        },
        {
          "internalType": "address",
          "name": "_newOwner",
          "type": "address"
        }
      ],
      "name": "transferOwnership",
      "outputs": [],
      "stateMutability": "nonpayable",
      "type": "function"
    },
    {
      "inputs": [
        {
          "internalType": "uint256",
          "name": "_id",
          "type": "uint256"
        },
        {
          "internalType": "string",
          "name": "_name",
          "type": "string"
        },
        {
          "internalType": "string",
          "name": "_breed",
          "type": "string"
        },
        {
          "internalType": "uint256",
          "name": "_age",
          "type": "uint256"
        },
        {
          "internalType": "string",
          "name": "_healthRecords",
          "type": "string"
        },
        {
          "internalType": "string",
          "name": "_image",
          "type": "string"
        }
      ],
      "name": "updatePetInformation",
      "outputs": [],
      "stateMutability": "nonpayable",
      "type": "function"
    }
  ],
  "bytecode": "0x608060405234801561001057600080fd5b506125d4806100206000396000f3fe608060405234801561001057600080fd5b50600436106100a95760003560e01c8063656ae1db11610071578063656ae1db146101505780637b37ff001461016c578063c77195111461019c578063c823c855146101b8578063cfb869bf146101d4578063fd8c175d1461020b576100a9565b806329507f73146100ae57806340367ad6146100ca5780634685a127146100e65780634e8933de1461010257806359d5519414610120575b600080fd5b6100c860048036038101906100c39190611617565b610229565b005b6100e460048036038101906100df9190611657565b610324565b005b61010060048036038101906100fb91906117ca565b6104c0565b005b61010a610611565b60405161011791906118d6565b60405180910390f35b61013a60048036038101906101359190611657565b61061b565b6040516101479190611a6e565b60405180910390f35b61016a60048036038101906101659190611a90565b61099c565b005b61018660048036038101906101819190611b7b565b610bda565b6040516101939190611d2f565b60405180910390f35b6101b660048036038101906101b19190611657565b611091565b005b6101d260048036038101906101cd9190611657565b6111ce565b005b6101ee60048036038101906101e99190611657565b611268565b604051610202989796959493929190611db9565b60405180910390f35b61021361150a565b60405161022091906118d6565b60405180910390f35b3373ffffffffffffffffffffffffffffffffffffffff1660008084815260200190815260200160002060030160009054906101000a900473ffffffffffffffffffffffffffffffffffffffff1673ffffffffffffffffffffffffffffffffffffffff16146102cc576040517f08c379a00000000000000000000000000000000000000000000000000000000081526004016102c390611ec5565b60405180910390fd5b8060008084815260200190815260200160002060030160006101000a81548173ffffffffffffffffffffffffffffffffffffffff021916908373ffffffffffffffffffffffffffffffffffffffff1602179055505050565b3373ffffffffffffffffffffffffffffffffffffffff1660008083815260200190815260200160002060030160009054906101000a900473ffffffffffffffffffffffffffffffffffffffff1673ffffffffffffffffffffffffffffffffffffffff16146103c7576040517f08c379a00000000000000000000000000000000000000000000000000000000081526004016103be90611ec5565b60405180910390fd5b6001151560008083815260200190815260200160002060060160009054906101000a900460ff161515148061042257506001151560008083815260200190815260200160002060060160019054906101000a900460ff161515145b610461576040517f08c379a000000000000000000000000000000000000000000000000000000000815260040161045890611f57565b60405180910390fd5b600080600083815260200190815260200160002060060160006101000a81548160ff021916908315150217905550600080600083815260200190815260200160002060060160016101000a81548160ff02191690831515021790555050565b3373ffffffffffffffffffffffffffffffffffffffff1660008088815260200190815260200160002060030160009054906101000a900473ffffffffffffffffffffffffffffffffffffffff1673ffffffffffffffffffffffffffffffffffffffff1614610563576040517f08c379a000000000000000000000000000000000000000000000000000000000815260040161055a90611ec5565b60405180910390fd5b8460008088815260200190815260200160002060000190816105859190612183565b508360008088815260200190815260200160002060010190816105a89190612183565b5082600080888152602001908152602001600020600201819055508160008088815260200190815260200160002060040190816105e59190612183565b508060008088815260200190815260200160002060050190816106089190612183565b50505050505050565b6000600154905090565b610623611510565b60008211801561063557506001548211155b610674576040517f08c379a000000000000000000000000000000000000000000000000000000000815260040161066b906122a1565b60405180910390fd5b60008060008481526020019081526020016000209050610692611510565b8160000180546106a190611fa6565b80601f01602080910402602001604051908101604052809291908181526020018280546106cd90611fa6565b801561071a5780601f106106ef5761010080835404028352916020019161071a565b820191906000526020600020905b8154815290600101906020018083116106fd57829003601f168201915b5050505050816000018190525081600101805461073690611fa6565b80601f016020809104026020016040519081016040528092919081815260200182805461076290611fa6565b80156107af5780601f10610784576101008083540402835291602001916107af565b820191906000526020600020905b81548152906001019060200180831161079257829003601f168201915b5050505050816020018190525081600201548160400181815250508160030160009054906101000a900473ffffffffffffffffffffffffffffffffffffffff16816060019073ffffffffffffffffffffffffffffffffffffffff16908173ffffffffffffffffffffffffffffffffffffffff168152505081600401805461083590611fa6565b80601f016020809104026020016040519081016040528092919081815260200182805461086190611fa6565b80156108ae5780601f10610883576101008083540402835291602001916108ae565b820191906000526020600020905b81548152906001019060200180831161089157829003601f168201915b505050505081608001819052508160050180546108ca90611fa6565b80601f01602080910402602001604051908101604052809291908181526020018280546108f690611fa6565b80156109435780601f1061091857610100808354040283529160200191610943565b820191906000526020600020905b81548152906001019060200180831161092657829003601f168201915b50505050508160a001819052508160060160009054906101000a900460ff168160c00190151590811515815250508160060160019054906101000a900460ff168160e00190151590811515815250508092505050919050565b60008551116109e0576040517f08c379a00000000000000000000000000000000000000000000000000000000081526004016109d79061230d565b60405180910390fd5b6000845111610a24576040517f08c379a0000000000000000000000000000000000000000000000000000000008152600401610a1b90612379565b60405180910390fd5b60016000815480929190610a37906123c8565b91905055506040518061010001604052808681526020018581526020018481526020013373ffffffffffffffffffffffffffffffffffffffff1681526020018381526020018281526020016000151581526020016000151581525060008060015481526020019081526020016000206000820151816000019081610abb9190612183565b506020820151816001019081610ad19190612183565b506040820151816002015560608201518160030160006101000a81548173ffffffffffffffffffffffffffffffffffffffff021916908373ffffffffffffffffffffffffffffffffffffffff1602179055506080820151816004019081610b389190612183565b5060a0820151816005019081610b4e9190612183565b5060c08201518160060160006101000a81548160ff02191690831515021790555060e08201518160060160016101000a81548160ff0219169083151502179055509050507fe3e53442759ed3227f442f5fec0e8ad0292ecff4c6738fcad5f42c415740ddd660015486868633604051610bcb959493929190612410565b60405180910390a15050505050565b6060600080600190505b6001548111610c77578373ffffffffffffffffffffffffffffffffffffffff1660008083815260200190815260200160002060030160009054906101000a900473ffffffffffffffffffffffffffffffffffffffff1673ffffffffffffffffffffffffffffffffffffffff1603610c64578180610c60906123c8565b9250505b8080610c6f906123c8565b915050610be4565b5060008167ffffffffffffffff811115610c9457610c9361169f565b5b604051908082528060200260200182016040528015610ccd57816020015b610cba611510565b815260200190600190039081610cb25790505b509050600080600190505b6001548111611085578573ffffffffffffffffffffffffffffffffffffffff1660008083815260200190815260200160002060030160009054906101000a900473ffffffffffffffffffffffffffffffffffffffff1673ffffffffffffffffffffffffffffffffffffffff16036110725760008082815260200190815260200160002060405180610100016040529081600082018054610d7790611fa6565b80601f0160208091040260200160405190810160405280929190818152602001828054610da390611fa6565b8015610df05780601f10610dc557610100808354040283529160200191610df0565b820191906000526020600020905b815481529060010190602001808311610dd357829003601f168201915b50505050508152602001600182018054610e0990611fa6565b80601f0160208091040260200160405190810160405280929190818152602001828054610e3590611fa6565b8015610e825780601f10610e5757610100808354040283529160200191610e82565b820191906000526020600020905b815481529060010190602001808311610e6557829003601f168201915b50505050508152602001600282015481526020016003820160009054906101000a900473ffffffffffffffffffffffffffffffffffffffff1673ffffffffffffffffffffffffffffffffffffffff1673ffffffffffffffffffffffffffffffffffffffff168152602001600482018054610efb90611fa6565b80601f0160208091040260200160405190810160405280929190818152602001828054610f2790611fa6565b8015610f745780601f10610f4957610100808354040283529160200191610f74565b820191906000526020600020905b815481529060010190602001808311610f5757829003601f168201915b50505050508152602001600582018054610f8d90611fa6565b80601f0160208091040260200160405190810160405280929190818152602001828054610fb990611fa6565b80156110065780601f10610fdb57610100808354040283529160200191611006565b820191906000526020600020905b815481529060010190602001808311610fe957829003601f168201915b505050505081526020016006820160009054906101000a900460ff161515151581526020016006820160019054906101000a900460ff16151515158152505083838151811061105857611057612471565b5b6020026020010181905250818061106e906123c8565b9250505b808061107d906123c8565b915050610cd8565b50819350505050919050565b3373ffffffffffffffffffffffffffffffffffffffff1660008083815260200190815260200160002060030160009054906101000a900473ffffffffffffffffffffffffffffffffffffffff1673ffffffffffffffffffffffffffffffffffffffff1614611134576040517f08c379a000000000000000000000000000000000000000000000000000000000815260040161112b90611ec5565b60405180910390fd5b6000151560008083815260200190815260200160002060060160009054906101000a900460ff1615151461119d576040517f08c379a000000000000000000000000000000000000000000000000000000000815260040161119490612512565b60405180910390fd5b600160008083815260200190815260200160002060060160006101000a81548160ff02191690831515021790555050565b6001151560008083815260200190815260200160002060060160009054906101000a900460ff16151514611237576040517f08c379a000000000000000000000000000000000000000000000000000000000815260040161122e9061257e565b60405180910390fd5b600160008083815260200190815260200160002060060160016101000a81548160ff02191690831515021790555050565b600060205280600052604060002060009150905080600001805461128b90611fa6565b80601f01602080910402602001604051908101604052809291908181526020018280546112b790611fa6565b80156113045780601f106112d957610100808354040283529160200191611304565b820191906000526020600020905b8154815290600101906020018083116112e757829003601f168201915b50505050509080600101805461131990611fa6565b80601f016020809104026020016040519081016040528092919081815260200182805461134590611fa6565b80156113925780601f1061136757610100808354040283529160200191611392565b820191906000526020600020905b81548152906001019060200180831161137557829003601f168201915b5050505050908060020154908060030160009054906101000a900473ffffffffffffffffffffffffffffffffffffffff16908060040180546113d390611fa6565b80601f01602080910402602001604051908101604052809291908181526020018280546113ff90611fa6565b801561144c5780601f106114215761010080835404028352916020019161144c565b820191906000526020600020905b81548152906001019060200180831161142f57829003601f168201915b50505050509080600501805461146190611fa6565b80601f016020809104026020016040519081016040528092919081815260200182805461148d90611fa6565b80156114da5780601f106114af576101008083540402835291602001916114da565b820191906000526020600020905b8154815290600101906020018083116114bd57829003601f168201915b5050505050908060060160009054906101000a900460ff16908060060160019054906101000a900460ff16905088565b60015481565b604051806101000160405280606081526020016060815260200160008152602001600073ffffffffffffffffffffffffffffffffffffffff16815260200160608152602001606081526020016000151581526020016000151581525090565b6000604051905090565b600080fd5b600080fd5b6000819050919050565b61159681611583565b81146115a157600080fd5b50565b6000813590506115b38161158d565b92915050565b600073ffffffffffffffffffffffffffffffffffffffff82169050919050565b60006115e4826115b9565b9050919050565b6115f4816115d9565b81146115ff57600080fd5b50565b600081359050611611816115eb565b92915050565b6000806040838503121561162e5761162d611579565b5b600061163c858286016115a4565b925050602061164d85828601611602565b9150509250929050565b60006020828403121561166d5761166c611579565b5b600061167b848285016115a4565b91505092915050565b600080fd5b600080fd5b6000601f19601f8301169050919050565b7f4e487b7100000000000000000000000000000000000000000000000000000000600052604160045260246000fd5b6116d78261168e565b810181811067ffffffffffffffff821117156116f6576116f561169f565b5b80604052505050565b600061170961156f565b905061171582826116ce565b919050565b600067ffffffffffffffff8211156117355761173461169f565b5b61173e8261168e565b9050602081019050919050565b82818337600083830152505050565b600061176d6117688461171a565b6116ff565b90508281526020810184848401111561178957611788611689565b5b61179484828561174b565b509392505050565b600082601f8301126117b1576117b0611684565b5b81356117c184826020860161175a565b91505092915050565b60008060008060008060c087890312156117e7576117e6611579565b5b60006117f589828a016115a4565b965050602087013567ffffffffffffffff8111156118165761181561157e565b5b61182289828a0161179c565b955050604087013567ffffffffffffffff8111156118435761184261157e565b5b61184f89828a0161179c565b945050606061186089828a016115a4565b935050608087013567ffffffffffffffff8111156118815761188061157e565b5b61188d89828a0161179c565b92505060a087013567ffffffffffffffff8111156118ae576118ad61157e565b5b6118ba89828a0161179c565b9150509295509295509295565b6118d081611583565b82525050565b60006020820190506118eb60008301846118c7565b92915050565b600081519050919050565b600082825260208201905092915050565b60005b8381101561192b578082015181840152602081019050611910565b60008484015250505050565b6000611942826118f1565b61194c81856118fc565b935061195c81856020860161190d565b6119658161168e565b840191505092915050565b61197981611583565b82525050565b611988816115d9565b82525050565b60008115159050919050565b6119a38161198e565b82525050565b60006101008301600083015184820360008601526119c78282611937565b915050602083015184820360208601526119e18282611937565b91505060408301516119f66040860182611970565b506060830151611a09606086018261197f565b5060808301518482036080860152611a218282611937565b91505060a083015184820360a0860152611a3b8282611937565b91505060c0830151611a5060c086018261199a565b5060e0830151611a6360e086018261199a565b508091505092915050565b60006020820190508181036000830152611a8881846119a9565b905092915050565b600080600080600060a08688031215611aac57611aab611579565b5b600086013567ffffffffffffffff811115611aca57611ac961157e565b5b611ad68882890161179c565b955050602086013567ffffffffffffffff811115611af757611af661157e565b5b611b038882890161179c565b9450506040611b14888289016115a4565b935050606086013567ffffffffffffffff811115611b3557611b3461157e565b5b611b418882890161179c565b925050608086013567ffffffffffffffff811115611b6257611b6161157e565b5b611b6e8882890161179c565b9150509295509295909350565b600060208284031215611b9157611b90611579565b5b6000611b9f84828501611602565b91505092915050565b600081519050919050565b600082825260208201905092915050565b6000819050602082019050919050565b6000610100830160008301518482036000860152611bf28282611937565b91505060208301518482036020860152611c0c8282611937565b9150506040830151611c216040860182611970565b506060830151611c34606086018261197f565b5060808301518482036080860152611c4c8282611937565b91505060a083015184820360a0860152611c668282611937565b91505060c0830151611c7b60c086018261199a565b5060e0830151611c8e60e086018261199a565b508091505092915050565b6000611ca58383611bd4565b905092915050565b6000602082019050919050565b6000611cc582611ba8565b611ccf8185611bb3565b935083602082028501611ce185611bc4565b8060005b85811015611d1d5784840389528151611cfe8582611c99565b9450611d0983611cad565b925060208a01995050600181019050611ce5565b50829750879550505050505092915050565b60006020820190508181036000830152611d498184611cba565b905092915050565b600082825260208201905092915050565b6000611d6d826118f1565b611d778185611d51565b9350611d8781856020860161190d565b611d908161168e565b840191505092915050565b611da4816115d9565b82525050565b611db38161198e565b82525050565b6000610100820190508181036000830152611dd4818b611d62565b90508181036020830152611de8818a611d62565b9050611df760408301896118c7565b611e046060830188611d9b565b8181036080830152611e168187611d62565b905081810360a0830152611e2a8186611d62565b9050611e3960c0830185611daa565b611e4660e0830184611daa565b9998505050505050505050565b7f596f7520617265206e6f7420746865206f776e6572206f66207468697320706560008201527f7400000000000000000000000000000000000000000000000000000000000000602082015250565b6000611eaf602183611d51565b9150611eba82611e53565b604082019050919050565b60006020820190508181036000830152611ede81611ea2565b9050919050565b7f5468697320706574206973206e6f74207265706f72746564206c6f7374206f7260008201527f20666f756e640000000000000000000000000000000000000000000000000000602082015250565b6000611f41602683611d51565b9150611f4c82611ee5565b604082019050919050565b60006020820190508181036000830152611f7081611f34565b9050919050565b7f4e487b7100000000000000000000000000000000000000000000000000000000600052602260045260246000fd5b60006002820490506001821680611fbe57607f821691505b602082108103611fd157611fd0611f77565b5b50919050565b60008190508160005260206000209050919050565b60006020601f8301049050919050565b600082821b905092915050565b6000600883026120397fffffffffffffffffffffffffffffffffffffffffffffffffffffffffffffffff82611ffc565b6120438683611ffc565b95508019841693508086168417925050509392505050565b6000819050919050565b600061208061207b61207684611583565b61205b565b611583565b9050919050565b6000819050919050565b61209a83612065565b6120ae6120a682612087565b848454612009565b825550505050565b600090565b6120c36120b6565b6120ce818484612091565b505050565b5b818110156120f2576120e76000826120bb565b6001810190506120d4565b5050565b601f8211156121375761210881611fd7565b61211184611fec565b81016020851015612120578190505b61213461212c85611fec565b8301826120d3565b50505b505050565b600082821c905092915050565b600061215a6000198460080261213c565b1980831691505092915050565b60006121738383612149565b9150826002028217905092915050565b61218c826118f1565b67ffffffffffffffff8111156121a5576121a461169f565b5b6121af8254611fa6565b6121ba8282856120f6565b600060209050601f8311600181146121ed57600084156121db578287015190505b6121e58582612167565b86555061224d565b601f1984166121fb86611fd7565b60005b82811015612223578489015182556001820191506020850194506020810190506121fe565b86831015612240578489015161223c601f891682612149565b8355505b6001600288020188555050505b505050505050565b7f496e76616c696420706574204944000000000000000000000000000000000000600082015250565b600061228b600e83611d51565b915061229682612255565b602082019050919050565b600060208201905081810360008301526122ba8161227e565b9050919050565b7f4e616d652063616e6e6f7420626520656d707479000000000000000000000000600082015250565b60006122f7601483611d51565b9150612302826122c1565b602082019050919050565b60006020820190508181036000830152612326816122ea565b9050919050565b7f42726565642063616e6e6f7420626520656d7074790000000000000000000000600082015250565b6000612363601583611d51565b915061236e8261232d565b602082019050919050565b6000602082019050818103600083015261239281612356565b9050919050565b7f4e487b7100000000000000000000000000000000000000000000000000000000600052601160045260246000fd5b60006123d382611583565b91507fffffffffffffffffffffffffffffffffffffffffffffffffffffffffffffffff820361240557612404612399565b5b600182019050919050565b600060a08201905061242560008301886118c7565b81810360208301526124378187611d62565b9050818103604083015261244b8186611d62565b905061245a60608301856118c7565b6124676080830184611d9b565b9695505050505050565b7f4e487b7100000000000000000000000000000000000000000000000000000000600052603260045260246000fd5b7f546869732070657420697320616c7265616479207265706f72746564206c6f7360008201527f7400000000000000000000000000000000000000000000000000000000000000602082015250565b60006124fc602183611d51565b9150612507826124a0565b604082019050919050565b6000602082019050818103600083015261252b816124ef565b9050919050565b7f5468697320706574206973206e6f74207265706f72746564206c6f7374000000600082015250565b6000612568601d83611d51565b915061257382612532565b602082019050919050565b600060208201905081810360008301526125978161255b565b905091905056fea2646970667358221220a6feaf99a9b0c61f559f793074c93a4883efffa96f21013b5633aba47a8b156864736f6c63430008120033",
  "linkReferences": {},
  "deployedLinkReferences": {}
}