{
  "_format": "hh-sol-artifact-1",
  "contractName": "PetIdentity",
  "sourceName": "contracts/PetIdentity.sol",
  "abi": [
    {
      "anonymous": false,
      "inputs": [
        {
          "indexed": false,
          "internalType": "uint256",
          "name": "id",
          "type": "uint256"
        },
        {
          "indexed": false,
          "internalType": "string",
          "name": "name",
          "type": "string"
        },
        {
          "indexed": false,
          "internalType": "string",
          "name": "breed",
          "type": "string"
        },
        {
          "indexed": false,
          "internalType": "uint256",
          "name": "age",
          "type": "uint256"
        },
        {
          "indexed": false,
          "internalType": "address",
          "name": "owner",
          "type": "address"
        }
      ],
      "name": "PetAdded",
      "type": "event"
    },
    {
      "anonymous": false,
      "inputs": [
        {
          "indexed": false,
          "internalType": "uint256",
          "name": "id",
          "type": "uint256"
        },
        {
          "indexed": false,
          "internalType": "address",
          "name": "oldOwner",
          "type": "address"
        },
        {
          "indexed": false,
          "internalType": "address",
          "name": "newOwner",
          "type": "address"
        }
      ],
      "name": "PetOwnershipTransferred",
      "type": "event"
    },
    {
      "inputs": [
        {
          "internalType": "string",
          "name": "_name",
          "type": "string"
        },
        {
          "internalType": "string",
          "name": "_breed",
          "type": "string"
        },
        {
          "internalType": "uint256",
          "name": "_age",
          "type": "uint256"
        },
        {
          "internalType": "string",
          "name": "_healthRecords",
          "type": "string"
        },
        {
          "internalType": "string",
          "name": "_image",
          "type": "string"
        }
      ],
      "name": "addPet",
      "outputs": [],
      "stateMutability": "nonpayable",
      "type": "function"
    },
    {
      "inputs": [
        {
          "internalType": "uint256",
          "name": "_id",
          "type": "uint256"
        }
      ],
      "name": "clearReport",
      "outputs": [],
      "stateMutability": "nonpayable",
      "type": "function"
    },
    {
      "inputs": [
        {
          "internalType": "uint256",
          "name": "_id",
          "type": "uint256"
        }
      ],
      "name": "getPet",
      "outputs": [
        {
          "components": [
            {
              "internalType": "string",
              "name": "name",
              "type": "string"
            },
            {
              "internalType": "string",
              "name": "breed",
              "type": "string"
            },
            {
              "internalType": "uint256",
              "name": "age",
              "type": "uint256"
            },
            {
              "internalType": "address",
              "name": "owner",
              "type": "address"
            },
            {
              "internalType": "string",
              "name": "healthRecords",
              "type": "string"
            },
            {
              "internalType": "string",
              "name": "image",
              "type": "string"
            },
            {
              "internalType": "bool",
              "name": "isLost",
              "type": "bool"
            },
            {
              "internalType": "bool",
              "name": "isFound",
              "type": "bool"
            }
          ],
          "internalType": "struct PetIdentity.Pet",
          "name": "",
          "type": "tuple"
        }
      ],
      "stateMutability": "view",
      "type": "function"
    },
    {
      "inputs": [],
      "name": "getPetCount",
      "outputs": [
        {
          "internalType": "uint256",
          "name": "",
          "type": "uint256"
        }
      ],
      "stateMutability": "view",
      "type": "function"
    },
    {
      "inputs": [
        {
          "internalType": "uint256",
          "name": "",
          "type": "uint256"
        }
      ],
      "name": "pets",
      "outputs": [
        {
          "internalType": "string",
          "name": "name",
          "type": "string"
        },
        {
          "internalType": "string",
          "name": "breed",
          "type": "string"
        },
        {
          "internalType": "uint256",
          "name": "age",
          "type": "uint256"
        },
        {
          "internalType": "address",
          "name": "owner",
          "type": "address"
        },
        {
          "internalType": "string",
          "name": "healthRecords",
          "type": "string"
        },
        {
          "internalType": "string",
          "name": "image",
          "type": "string"
        },
        {
          "internalType": "bool",
          "name": "isLost",
          "type": "bool"
        },
        {
          "internalType": "bool",
          "name": "isFound",
          "type": "bool"
        }
      ],
      "stateMutability": "view",
      "type": "function"
    },
    {
      "inputs": [],
      "name": "petsCount",
      "outputs": [
        {
          "internalType": "uint256",
          "name": "",
          "type": "uint256"
        }
      ],
      "stateMutability": "view",
      "type": "function"
    },
    {
      "inputs": [
        {
          "internalType": "uint256",
          "name": "_id",
          "type": "uint256"
        }
      ],
      "name": "reportFound",
      "outputs": [],
      "stateMutability": "nonpayable",
      "type": "function"
    },
    {
      "inputs": [
        {
          "internalType": "uint256",
          "name": "_id",
          "type": "uint256"
        }
      ],
      "name": "reportLost",
      "outputs": [],
      "stateMutability": "nonpayable",
      "type": "function"
    },
    {
      "inputs": [
        {
          "internalType": "uint256",
          "name": "_id",
          "type": "uint256"
        },
        {
          "internalType": "address",
          "name": "_newOwner",
          "type": "address"
        }
      ],
      "name": "transferOwnership",
      "outputs": [],
      "stateMutability": "nonpayable",
      "type": "function"
    }
  ],
  "bytecode": "0x608060405234801561001057600080fd5b50611c68806100206000396000f3fe608060405234801561001057600080fd5b50600436106100935760003560e01c8063656ae1db11610066578063656ae1db1461011e578063c77195111461013a578063c823c85514610156578063cfb869bf14610172578063fd8c175d146101a957610093565b806329507f731461009857806340367ad6146100b45780634e8933de146100d057806359d55194146100ee575b600080fd5b6100b260048036038101906100ad9190610fad565b6101c7565b005b6100ce60048036038101906100c99190610fed565b6102c2565b005b6100d861045e565b6040516100e59190611029565b60405180910390f35b61010860048036038101906101039190610fed565b610468565b60405161011591906111d2565b60405180910390f35b61013860048036038101906101339190611329565b6107e9565b005b610154600480360381019061014f9190610fed565b610a27565b005b610170600480360381019061016b9190610fed565b610b64565b005b61018c60048036038101906101879190610fed565b610bfe565b6040516101a098979695949392919061147c565b60405180910390f35b6101b1610ea0565b6040516101be9190611029565b60405180910390f35b3373ffffffffffffffffffffffffffffffffffffffff1660008084815260200190815260200160002060030160009054906101000a900473ffffffffffffffffffffffffffffffffffffffff1673ffffffffffffffffffffffffffffffffffffffff161461026a576040517f08c379a000000000000000000000000000000000000000000000000000000000815260040161026190611588565b60405180910390fd5b8060008084815260200190815260200160002060030160006101000a81548173ffffffffffffffffffffffffffffffffffffffff021916908373ffffffffffffffffffffffffffffffffffffffff1602179055505050565b3373ffffffffffffffffffffffffffffffffffffffff1660008083815260200190815260200160002060030160009054906101000a900473ffffffffffffffffffffffffffffffffffffffff1673ffffffffffffffffffffffffffffffffffffffff1614610365576040517f08c379a000000000000000000000000000000000000000000000000000000000815260040161035c90611588565b60405180910390fd5b6001151560008083815260200190815260200160002060060160009054906101000a900460ff16151514806103c057506001151560008083815260200190815260200160002060060160019054906101000a900460ff161515145b6103ff576040517f08c379a00000000000000000000000000000000000000000000000000000000081526004016103f69061161a565b60405180910390fd5b600080600083815260200190815260200160002060060160006101000a81548160ff021916908315150217905550600080600083815260200190815260200160002060060160016101000a81548160ff02191690831515021790555050565b6000600154905090565b610470610ea6565b60008211801561048257506001548211155b6104c1576040517f08c379a00000000000000000000000000000000000000000000000000000000081526004016104b890611686565b60405180910390fd5b600080600084815260200190815260200160002090506104df610ea6565b8160000180546104ee906116d5565b80601f016020809104026020016040519081016040528092919081815260200182805461051a906116d5565b80156105675780601f1061053c57610100808354040283529160200191610567565b820191906000526020600020905b81548152906001019060200180831161054a57829003601f168201915b50505050508160000181905250816001018054610583906116d5565b80601f01602080910402602001604051908101604052809291908181526020018280546105af906116d5565b80156105fc5780601f106105d1576101008083540402835291602001916105fc565b820191906000526020600020905b8154815290600101906020018083116105df57829003601f168201915b5050505050816020018190525081600201548160400181815250508160030160009054906101000a900473ffffffffffffffffffffffffffffffffffffffff16816060019073ffffffffffffffffffffffffffffffffffffffff16908173ffffffffffffffffffffffffffffffffffffffff1681525050816004018054610682906116d5565b80601f01602080910402602001604051908101604052809291908181526020018280546106ae906116d5565b80156106fb5780601f106106d0576101008083540402835291602001916106fb565b820191906000526020600020905b8154815290600101906020018083116106de57829003601f168201915b50505050508160800181905250816005018054610717906116d5565b80601f0160208091040260200160405190810160405280929190818152602001828054610743906116d5565b80156107905780601f1061076557610100808354040283529160200191610790565b820191906000526020600020905b81548152906001019060200180831161077357829003601f168201915b50505050508160a001819052508160060160009054906101000a900460ff168160c00190151590811515815250508160060160019054906101000a900460ff168160e00190151590811515815250508092505050919050565b600085511161082d576040517f08c379a000000000000000000000000000000000000000000000000000000000815260040161082490611752565b60405180910390fd5b6000845111610871576040517f08c379a0000000000000000000000000000000000000000000000000000000008152600401610868906117be565b60405180910390fd5b600160008154809291906108849061180d565b91905055506040518061010001604052808681526020018581526020018481526020013373ffffffffffffffffffffffffffffffffffffffff16815260200183815260200182815260200160001515815260200160001515815250600080600154815260200190815260200160002060008201518160000190816109089190611a01565b50602082015181600101908161091e9190611a01565b506040820151816002015560608201518160030160006101000a81548173ffffffffffffffffffffffffffffffffffffffff021916908373ffffffffffffffffffffffffffffffffffffffff16021790555060808201518160040190816109859190611a01565b5060a082015181600501908161099b9190611a01565b5060c08201518160060160006101000a81548160ff02191690831515021790555060e08201518160060160016101000a81548160ff0219169083151502179055509050507fe3e53442759ed3227f442f5fec0e8ad0292ecff4c6738fcad5f42c415740ddd660015486868633604051610a18959493929190611ad3565b60405180910390a15050505050565b3373ffffffffffffffffffffffffffffffffffffffff1660008083815260200190815260200160002060030160009054906101000a900473ffffffffffffffffffffffffffffffffffffffff1673ffffffffffffffffffffffffffffffffffffffff1614610aca576040517f08c379a0000000000000000000000000000000000000000000000000000000008152600401610ac190611588565b60405180910390fd5b6000151560008083815260200190815260200160002060060160009054906101000a900460ff16151514610b33576040517f08c379a0000000000000000000000000000000000000000000000000000000008152600401610b2a90611ba6565b60405180910390fd5b600160008083815260200190815260200160002060060160006101000a81548160ff02191690831515021790555050565b6001151560008083815260200190815260200160002060060160009054906101000a900460ff16151514610bcd576040517f08c379a0000000000000000000000000000000000000000000000000000000008152600401610bc490611c12565b60405180910390fd5b600160008083815260200190815260200160002060060160016101000a81548160ff02191690831515021790555050565b6000602052806000526040600020600091509050806000018054610c21906116d5565b80601f0160208091040260200160405190810160405280929190818152602001828054610c4d906116d5565b8015610c9a5780601f10610c6f57610100808354040283529160200191610c9a565b820191906000526020600020905b815481529060010190602001808311610c7d57829003601f168201915b505050505090806001018054610caf906116d5565b80601f0160208091040260200160405190810160405280929190818152602001828054610cdb906116d5565b8015610d285780601f10610cfd57610100808354040283529160200191610d28565b820191906000526020600020905b815481529060010190602001808311610d0b57829003601f168201915b5050505050908060020154908060030160009054906101000a900473ffffffffffffffffffffffffffffffffffffffff1690806004018054610d69906116d5565b80601f0160208091040260200160405190810160405280929190818152602001828054610d95906116d5565b8015610de25780601f10610db757610100808354040283529160200191610de2565b820191906000526020600020905b815481529060010190602001808311610dc557829003601f168201915b505050505090806005018054610df7906116d5565b80601f0160208091040260200160405190810160405280929190818152602001828054610e23906116d5565b8015610e705780601f10610e4557610100808354040283529160200191610e70565b820191906000526020600020905b815481529060010190602001808311610e5357829003601f168201915b5050505050908060060160009054906101000a900460ff16908060060160019054906101000a900460ff16905088565b60015481565b604051806101000160405280606081526020016060815260200160008152602001600073ffffffffffffffffffffffffffffffffffffffff16815260200160608152602001606081526020016000151581526020016000151581525090565b6000604051905090565b600080fd5b600080fd5b6000819050919050565b610f2c81610f19565b8114610f3757600080fd5b50565b600081359050610f4981610f23565b92915050565b600073ffffffffffffffffffffffffffffffffffffffff82169050919050565b6000610f7a82610f4f565b9050919050565b610f8a81610f6f565b8114610f9557600080fd5b50565b600081359050610fa781610f81565b92915050565b60008060408385031215610fc457610fc3610f0f565b5b6000610fd285828601610f3a565b9250506020610fe385828601610f98565b9150509250929050565b60006020828403121561100357611002610f0f565b5b600061101184828501610f3a565b91505092915050565b61102381610f19565b82525050565b600060208201905061103e600083018461101a565b92915050565b600081519050919050565b600082825260208201905092915050565b60005b8381101561107e578082015181840152602081019050611063565b60008484015250505050565b6000601f19601f8301169050919050565b60006110a682611044565b6110b0818561104f565b93506110c0818560208601611060565b6110c98161108a565b840191505092915050565b6110dd81610f19565b82525050565b6110ec81610f6f565b82525050565b60008115159050919050565b611107816110f2565b82525050565b600061010083016000830151848203600086015261112b828261109b565b91505060208301518482036020860152611145828261109b565b915050604083015161115a60408601826110d4565b50606083015161116d60608601826110e3565b5060808301518482036080860152611185828261109b565b91505060a083015184820360a086015261119f828261109b565b91505060c08301516111b460c08601826110fe565b5060e08301516111c760e08601826110fe565b508091505092915050565b600060208201905081810360008301526111ec818461110d565b905092915050565b600080fd5b600080fd5b7f4e487b7100000000000000000000000000000000000000000000000000000000600052604160045260246000fd5b6112368261108a565b810181811067ffffffffffffffff82111715611255576112546111fe565b5b80604052505050565b6000611268610f05565b9050611274828261122d565b919050565b600067ffffffffffffffff821115611294576112936111fe565b5b61129d8261108a565b9050602081019050919050565b82818337600083830152505050565b60006112cc6112c784611279565b61125e565b9050828152602081018484840111156112e8576112e76111f9565b5b6112f38482856112aa565b509392505050565b600082601f8301126113105761130f6111f4565b5b81356113208482602086016112b9565b91505092915050565b600080600080600060a0868803121561134557611344610f0f565b5b600086013567ffffffffffffffff81111561136357611362610f14565b5b61136f888289016112fb565b955050602086013567ffffffffffffffff8111156113905761138f610f14565b5b61139c888289016112fb565b94505060406113ad88828901610f3a565b935050606086013567ffffffffffffffff8111156113ce576113cd610f14565b5b6113da888289016112fb565b925050608086013567ffffffffffffffff8111156113fb576113fa610f14565b5b611407888289016112fb565b9150509295509295909350565b600082825260208201905092915050565b600061143082611044565b61143a8185611414565b935061144a818560208601611060565b6114538161108a565b840191505092915050565b61146781610f6f565b82525050565b611476816110f2565b82525050565b6000610100820190508181036000830152611497818b611425565b905081810360208301526114ab818a611425565b90506114ba604083018961101a565b6114c7606083018861145e565b81810360808301526114d98187611425565b905081810360a08301526114ed8186611425565b90506114fc60c083018561146d565b61150960e083018461146d565b9998505050505050505050565b7f596f7520617265206e6f7420746865206f776e6572206f66207468697320706560008201527f7400000000000000000000000000000000000000000000000000000000000000602082015250565b6000611572602183611414565b915061157d82611516565b604082019050919050565b600060208201905081810360008301526115a181611565565b9050919050565b7f5468697320706574206973206e6f74207265706f72746564206c6f7374206f7260008201527f20666f756e640000000000000000000000000000000000000000000000000000602082015250565b6000611604602683611414565b915061160f826115a8565b604082019050919050565b60006020820190508181036000830152611633816115f7565b9050919050565b7f496e76616c696420706574204944000000000000000000000000000000000000600082015250565b6000611670600e83611414565b915061167b8261163a565b602082019050919050565b6000602082019050818103600083015261169f81611663565b9050919050565b7f4e487b7100000000000000000000000000000000000000000000000000000000600052602260045260246000fd5b600060028204905060018216806116ed57607f821691505b602082108103611700576116ff6116a6565b5b50919050565b7f4e616d652063616e6e6f7420626520656d707479000000000000000000000000600082015250565b600061173c601483611414565b915061174782611706565b602082019050919050565b6000602082019050818103600083015261176b8161172f565b9050919050565b7f42726565642063616e6e6f7420626520656d7074790000000000000000000000600082015250565b60006117a8601583611414565b91506117b382611772565b602082019050919050565b600060208201905081810360008301526117d78161179b565b9050919050565b7f4e487b7100000000000000000000000000000000000000000000000000000000600052601160045260246000fd5b600061181882610f19565b91507fffffffffffffffffffffffffffffffffffffffffffffffffffffffffffffffff820361184a576118496117de565b5b600182019050919050565b60008190508160005260206000209050919050565b60006020601f8301049050919050565b600082821b905092915050565b6000600883026118b77fffffffffffffffffffffffffffffffffffffffffffffffffffffffffffffffff8261187a565b6118c1868361187a565b95508019841693508086168417925050509392505050565b6000819050919050565b60006118fe6118f96118f484610f19565b6118d9565b610f19565b9050919050565b6000819050919050565b611918836118e3565b61192c61192482611905565b848454611887565b825550505050565b600090565b611941611934565b61194c81848461190f565b505050565b5b8181101561197057611965600082611939565b600181019050611952565b5050565b601f8211156119b55761198681611855565b61198f8461186a565b8101602085101561199e578190505b6119b26119aa8561186a565b830182611951565b50505b505050565b600082821c905092915050565b60006119d8600019846008026119ba565b1980831691505092915050565b60006119f183836119c7565b9150826002028217905092915050565b611a0a82611044565b67ffffffffffffffff811115611a2357611a226111fe565b5b611a2d82546116d5565b611a38828285611974565b600060209050601f831160018114611a6b5760008415611a59578287015190505b611a6385826119e5565b865550611acb565b601f198416611a7986611855565b60005b82811015611aa157848901518255600182019150602085019450602081019050611a7c565b86831015611abe5784890151611aba601f8916826119c7565b8355505b6001600288020188555050505b505050505050565b600060a082019050611ae8600083018861101a565b8181036020830152611afa8187611425565b90508181036040830152611b0e8186611425565b9050611b1d606083018561101a565b611b2a608083018461145e565b9695505050505050565b7f546869732070657420697320616c7265616479207265706f72746564206c6f7360008201527f7400000000000000000000000000000000000000000000000000000000000000602082015250565b6000611b90602183611414565b9150611b9b82611b34565b604082019050919050565b60006020820190508181036000830152611bbf81611b83565b9050919050565b7f5468697320706574206973206e6f74207265706f72746564206c6f7374000000600082015250565b6000611bfc601d83611414565b9150611c0782611bc6565b602082019050919050565b60006020820190508181036000830152611c2b81611bef565b905091905056fea264697066735822122000b35b442df97928b773c29f22b9192ca2167dd870f345114de7e1a321d60c5c64736f6c63430008120033",
  "linkReferences": {},
  "deployedLinkReferences": {}
}